{
  "_format": "hh3-artifact-1",
  "contractName": "AttendanceRegistry",
  "sourceName": "contracts/AttendanceRegistry.sol",
  "abi": [
    {
      "anonymous": false,
      "inputs": [
        {
          "indexed": false,
          "internalType": "string",
          "name": "name",
          "type": "string"
        },
        {
          "indexed": false,
          "internalType": "bool",
          "name": "present",
          "type": "bool"
        }
      ],
      "name": "AttendanceMarked",
      "type": "event"
    },
    {
      "anonymous": false,
      "inputs": [
        {
          "indexed": false,
          "internalType": "string",
          "name": "name",
          "type": "string"
        },
        {
          "indexed": false,
          "internalType": "uint8",
          "name": "age",
          "type": "uint8"
        },
        {
          "indexed": false,
          "internalType": "bool",
          "name": "present",
          "type": "bool"
        }
      ],
      "name": "StudentAdded",
      "type": "event"
    },
    {
      "inputs": [
        {
          "internalType": "string",
          "name": "_name",
          "type": "string"
        },
        {
          "internalType": "uint8",
          "name": "_age",
          "type": "uint8"
        }
      ],
      "name": "addStudent",
      "outputs": [
        {
          "components": [
            {
              "internalType": "string",
              "name": "name",
              "type": "string"
            },
            {
              "internalType": "uint8",
              "name": "age",
              "type": "uint8"
            },
            {
              "internalType": "bool",
              "name": "present",
              "type": "bool"
            }
          ],
          "internalType": "struct AttendanceRegistry.Student",
          "name": "",
          "type": "tuple"
        }
      ],
      "stateMutability": "nonpayable",
      "type": "function"
    },
    {
      "inputs": [
        {
          "internalType": "uint256",
          "name": "",
          "type": "uint256"
        }
      ],
      "name": "students",
      "outputs": [
        {
          "internalType": "string",
          "name": "name",
          "type": "string"
        },
        {
          "internalType": "uint8",
          "name": "age",
          "type": "uint8"
        },
        {
          "internalType": "bool",
          "name": "present",
          "type": "bool"
        }
      ],
      "stateMutability": "view",
      "type": "function"
    }
  ],
  "bytecode": "0x6080604052348015600e575f5ffd5b506108a68061001c5f395ff3fe608060405234801561000f575f5ffd5b5060043610610034575f3560e01c806306ead22e1461003857806362dc146b14610063575b5f5ffd5b61004b610046366004610525565b610083565b60405161005a9392919061056a565b60405180910390f35b610076610071366004610596565b610143565b60405161005a919061061a565b5f8181548110610091575f80fd5b905f5260205f2090600202015f91509050805f0180546100b09061065a565b80601f01602080910402602001604051908101604052809291908181526020018280546100dc9061065a565b80156101275780601f106100fe57610100808354040283529160200191610127565b820191905f5260205f20905b81548152906001019060200180831161010a57829003601f168201915b5050506001909301549192505060ff8082169161010090041683565b604080516060808201835281525f60208201819052918101919091525f8484604051610170929190610692565b60408051918290039091205f8181526002602052919091205490915060ff161561032f575f8181526001602052604081205481549091908190839081106101b9576101b96106a1565b905f5260205f20906002020160010160019054906101000a900460ff16159050805f83815481106101ec576101ec6106a1565b905f5260205f20906002020160010160016101000a81548160ff0219169083151502179055507f71c8529e76f454361f8984e525c2c51d2e0455aa211770a93c4013ff8e9fa4e0878783604051610245939291906106dd565b60405180910390a15f828154811061025f5761025f6106a1565b905f5260205f2090600202016040518060600160405290815f820180546102859061065a565b80601f01602080910402602001604051908101604052809291908181526020018280546102b19061065a565b80156102fc5780601f106102d3576101008083540402835291602001916102fc565b820191905f5260205f20905b8154815290600101906020018083116102df57829003601f168201915b50505091835250506001919091015460ff8082166020840152610100909104161515604090910152935061051e92505050565b5f80548282526001602081815260408085209390935560028152828420805460ff191690921790915581516080601f89018390049092028101820190925260608201878152829189908990819085018382808284375f92018290525093855250505060ff871660208084019190915260016040909301839052845492830185559381529290922081519192600202019081906103cb9082610762565b5060208201516001918201805460409485015115156101000261ffff1990911660ff9093169290921791909117905590517f83b20b6a910eed0274ba40cbace345813be3d7c631cf26996cd0cb7e71cf56539161042e918891889188919061081d565b60405180910390a15f80546104459060019061084b565b81548110610455576104556106a1565b905f5260205f2090600202016040518060600160405290815f8201805461047b9061065a565b80601f01602080910402602001604051908101604052809291908181526020018280546104a79061065a565b80156104f25780601f106104c9576101008083540402835291602001916104f2565b820191905f5260205f20905b8154815290600101906020018083116104d557829003601f168201915b50505091835250506001919091015460ff80821660208401526101009091041615156040909101529150505b9392505050565b5f60208284031215610535575f5ffd5b5035919050565b5f81518084528060208401602086015e5f602082860101526020601f19601f83011685010191505092915050565b606081525f61057c606083018661053c565b60ff94909416602083015250901515604090910152919050565b5f5f5f604084860312156105a8575f5ffd5b833567ffffffffffffffff8111156105be575f5ffd5b8401601f810186136105ce575f5ffd5b803567ffffffffffffffff8111156105e4575f5ffd5b8660208284010111156105f5575f5ffd5b60209182019450925084013560ff8116811461060f575f5ffd5b809150509250925092565b602081525f825160606020840152610635608084018261053c565b905060ff60208501511660408401526040840151151560608401528091505092915050565b600181811c9082168061066e57607f821691505b60208210810361068c57634e487b7160e01b5f52602260045260245ffd5b50919050565b818382375f9101908152919050565b634e487b7160e01b5f52603260045260245ffd5b81835281816020850137505f828201602090810191909152601f909101601f19169091010190565b604081525f6106f06040830185876106b5565b90508215156020830152949350505050565b634e487b7160e01b5f52604160045260245ffd5b601f82111561075d57805f5260205f20601f840160051c8101602085101561073b5750805b601f840160051c820191505b8181101561075a575f8155600101610747565b50505b505050565b815167ffffffffffffffff81111561077c5761077c610702565b6107908161078a845461065a565b84610716565b6020601f8211600181146107c2575f83156107ab5750848201515b5f19600385901b1c1916600184901b17845561075a565b5f84815260208120601f198516915b828110156107f157878501518255602094850194600190920191016107d1565b508482101561080e57868401515f19600387901b60f8161c191681555b50505050600190811b01905550565b606081525f6108306060830186886106b5565b60ff9490941660208301525090151560409091015292915050565b8181038181111561086a57634e487b7160e01b5f52601160045260245ffd5b9291505056fea2646970667358221220227f3423449b1aa85a487f3fe4fe6e8aa2b9abd4450de09f652ad77377ae3ba764736f6c634300081e0033",
  "linkReferences": {},
  "deployedLinkReferences": {},
  "immutableReferences": {},
  "inputSourceName": "project/contracts/AttendanceRegistry.sol",
  "buildInfoId": "solc-0_8_30-863e4c35a7c47a5e1350d625af02ac3c849b83f7"
}